:100000000C94A8000C94C5000C94C5000C94C70275
:100010000C94C5000C9406030C94C5000C94C50008
:100020000C94C5000C94C5000C94C5000C94C5003C
:100030000C94C5000C94C5000C94C5000C94C5002C
:100040000C9424080C94C5000C94C7000C94E50093
:100050000C94C5000C94C5000C94C5000C94C5000C
:100060000C94C5000C94C50008000000BE92244901
:10007000123EABAAAA2ABECDCCCC4C3E00000080DA
:10008000BEABAAAAAA3E00000000BF000000803F4D
:100090000000000000084178D3BB4387D1133D190D
:1000A0000E3CC3BD4282AD2B3E68EC8276BED98F3A
:1000B000E1A93E4C80EFFFBE01C4FF7F3F0000007E
:1000C0000000000102030541524D3B414E474C45A3
:1000D0003B484F52495A4F4E3B4241524F3B4D4194
:1000E000473B00524F4C4C3B50495443483B5941CD
:1000F000573B414C543B506F733B506F73523B4ED8
:100100006176523B4C4556454C3B4D41473B56452D
:100110004C3B0000000000250028002B00000000E0
:1001200000240027002A0004040404040404040238
:100130000202020202030303030303010204081084
:100140002040800102040810200102040810200051
:1001500011241FBECFEFD8E0DEBFCDBF11E0A0E07D
:10016000B1E0E0E0F0E402C005900D92A235B107E5
:10017000D9F725E0A2E5B1E001C01D92A63EB20785
:10018000E1F70E946E080C94FE1F0C9400001F9271
:100190000F920FB60F9211248F939F93EF93FF93BB
:1001A0009091C600E091700181E08E0FF0E0EF5871
:1001B000FE4F908380937001FF91EF919F918F91FB
:1001C0000F900FBE0F901F9018951F920F920FB6B1
:1001D0000F9211248F939F93EF93FF9380916E0161
:1001E00090916F01981761F08F5F87FD80E0E82F95
:1001F000F0E0E35BFA4F90819093C60080936E012C
:1002000090916F01891305C08091C1008F7D80930B
:10021000C100FF91EF919F918F910F900FBE0F90B2
:100220001F9018958093BC008FEF9091BC0097FDB4
:100230000EC08150D1F71092BC0080917102909154
:10024000720201969093720280937102089508954C
:10025000CF93C82F84EA0E941201C093BB0084E8A8
:10026000CF910C9412010F931F93CF93DF9300D083
:10027000CDB7DEB7880F4A8369830E9428010BEB54
:1002800010E06981F801608384E80E9412014A81CC
:10029000F801408384E80E94120184E98093BC0045
:1002A0000F900F90DF91CF911F910F9108954EE223
:1002B00064EF87E70E9433018EEE0E94280186EFEB
:1002C0008093BB0084E80E94120184E98093BC0003
:1002D0000895CF92DF92EF92FF920F931F93CF93E7
:1002E000DF931F92CDB7DEB7082F6A01122F880F58
:1002F00069830E94280169816093BB0084E80E94A1
:100300001201802F880F81600E9428017601012F41
:10031000015049F084EC0E9412018091BB00F7016A
:1003200081937F01F5CF1150C601810F911D8C0182
:1003300084E80E9412018091BB0094E99093BC0074
:10034000F80180830F90DF91CF911F910F91FF9063
:10035000EF90DF90CF900895CF92DF92EF92FF92CF
:10036000CF93DF9326E048E651E063E488E60E94FD
:10037000690180916A0190E0982F882720916B0194
:10038000822B95958795959587959093FA02809302
:10039000F9028091680190E0982F882720916901E7
:1003A000822B91958195910995958795959587953E
:1003B0009093FC028093FB0280916C0190E0982F57
:1003C000882720916D01822B9195819591099595B2
:1003D0008795959587959093FE028093FD022091D5
:1003E0000D0330910E0321153105A9F149EF52E0BB
:1003F000E1E4F5E0CBE3D5E0211582E0380721F414
:100400001082118212821382DA018D919D91AD01C9
:10041000092E000CAA0BBB0BC080D180E280F380B8
:100420008C0D9D1DAE1DBF1D81939193A193B19322
:1004300069E0B595A795979587956A95D1F78993C2
:100440009993B5E0ED34FB07B9F6215031093093AB
:100450000E0320930D03CBE3D5E0E9EFF2E0A5E333
:10046000B5E08991999120813181281B390B4D91FB
:100470005C911197CA01805293402817390734F0D4
:10048000805C994F281739070CF4C9018193919327
:100490008D939D9382E0EF3FF80719F7DF91CF919D
:1004A000FF90EF90DF90CF90089526E048E651E06E
:1004B00063E08EE10E946901E7EEF2E0A8E6B1E0B8
:1004C0008C9190E0982F882711962C911197822B70
:1004D0009587848714968C91149790E0982F88279D
:1004E00015962C911597822B9787868712968C915B
:1004F000129790E0982F882713962C91822B919534
:1005000081959109918B808B08950F931F93CF93C1
:10051000482F60E08EE10E943301CAE041E062E0D2
:100520008EE10E94330164E670E080E090E00E947A
:10053000EA070E945502A3EFB2E0E2E5F1E08D91F7
:100540009D9197FF03C0919581959109AC01092E6A
:10055000000C660B770B0081118122813381400FE3
:10056000511F621F731F41935193619371938130A7
:10057000904144F481E0EE35F80709F7C15071F677
:1005800081E001C080E0CF911F910F9108951F92EB
:100590000F920FB60F9211242F933F934F935F93B7
:1005A0006F937F938F939F93AF93BF93CF93EF936B
:1005B000FF93C3B10E94C5077894C0FD11C020917C
:1005C000330530913405621B730BCB018558934082
:1005D0008331954048F4709301016093000104C099
:1005E0007093340560933305FF91EF91CF91BF91E4
:1005F000AF919F918F917F916F915F914F913F91BB
:100600002F910F900FBE0F901F9018951F920F9271
:100610000FB60F9211242F933F934F935F936F93D5
:100620007F938F939F93AF93BF93CF93DF93EF937A
:10063000FF93C9B1D0913205DC270E94C507789499
:10064000C0933205D2FF18C0C2FD12C0209122050E
:1006500030912305AB01421B530B9A01455853407F
:100660004331554048F4309305012093040104C000
:100670007093230560932205D4FF18C0C4FD12C0F7
:100680002091240530912505AB01421B530B9A01A3
:10069000455853404331554048F430930901209365
:1006A000080104C07093250560932405D5FF18C088
:1006B000C5FD12C02091260530912705AB01421BD4
:1006C000530B9A01455853404331554048F43093F9
:1006D0000B0120930A0104C070932705609326053F
:1006E000D6FF18C0C6FD12C02091280530912905FB
:1006F000AB01421B530B9A014558534043315540BF
:1007000048F430930D0120930C0104C07093290527
:1007100060932805D7FF17C0C7FD11C020912A0597
:1007200030912B05621B730BCB01855893408331AD
:10073000954048F470930F0160930E0104C07093CC
:100740002B0560932A05FF91EF91DF91CF91BF9127
:10075000AF919F918F917F916F915F914F913F9159
:100760002F910F900FBE0F901F9018956150A0F021
:100770002091B60230E0F901EC54FD4F408151E088
:10078000540F50832D583D4FF901E40FF11D208186
:10079000FC012193CF01EACF08952091B60230E009
:1007A000D901A159BE4F9C919F5F97FD90E0F9013F
:1007B000E35BFA4FE90FF11D80839C93F901EB5441
:1007C000FD4F90818927808308951F93CF93DF93F6
:1007D000C82FD92F162F180F1C1721F089910E94AE
:1007E000CD03FACFDF91CF911F910895E091B6022A
:1007F000F0E0EB54FD4F80810E94CD03E1ECF0E08E
:100800008081806280830895CF93DF93D82FC62F95
:1008100084E20E94CD038DE40E94CD03D11102C079
:100820008EE301C081E20E94CD03E091B602F0E0C8
:10083000EB54FD4F10828C2F0E94CD03E091B60245
:10084000F0E0ED54FD4F8081DF91CF910C94CD030A
:1008500060E080E00E9404040C94F6030F931F9361
:10086000CF938C01C62F80E00E9404046C2FC80136
:100870000E94E503CF911F910F910C94F603CF9343
:10088000DF93EC010E94961C682F80E00E94040414
:10089000FE018491882331F0FE0184910E94CD03F2
:1008A0002196F6CFDF91CF910C94F603E7EDF2E0BD
:1008B0008081918123E0959587952A95E1F7909322
:1008C0008900809388008281938133E09595879594
:1008D0003A95E1F790938B0080938A00848195810B
:1008E00043E0959587954A95E1F78093B30086811B
:1008F000978153E0959587955A95E1F78093B400D9
:1009000008959B01AC01AA27429FB0015302C00188
:1009100034039A0B700D811D9A1F52039A0B700DB0
:10092000811D9A1F112408956F927F928F929F923A
:10093000AF92BF92CF92DF92EF92FF920F931F93ED
:10094000CF93DF93EC018B016A807B80CE80DF80C8
:10095000EA84FB84B301F801808191810E948104C3
:100960004B015C01B601F801828193810E948104F0
:10097000AB01BC01480D591D6A1D7B1D88859985F9
:10098000AA85BB85841B950BA60BB70B8887998717
:10099000AA87BB87B701F801808191810E948104F9
:1009A0004B015C01B601F801848195810E948104AC
:1009B000861A970AA80AB90A88819981AA81BB81F7
:1009C000880E991EAA1EBB1E88829982AA82BB82AB
:1009D000B701F801828193810E9481046B017C013F
:1009E000B301F801848195810E948104DC01CB016F
:1009F0008C0D9D1DAE1DBF1D0C811D812E813F8163
:100A0000800F911FA21FB31F8C839D83AE83BF8372
:100A1000DF91CF911F910F91FF90EF90DF90CF90DA
:100A2000BF90AF909F908F907F906F9008954F925E
:100A30005F926F927F928F929F92AF92BF92CF926E
:100A4000DF92EF92FF92CF936B017C0149015A0133
:100A50000E94DE1D2B013C01B701A601F7FE07C075
:100A600044275527BA014C195D096E097F09D50144
:100A7000C401B7FE07C088279927DC0188199909A6
:100A8000AA09BB09C1E0481759076A077B0744F068
:100A9000C0E0C501B4010E94DE1DA301920108C09F
:100AA000C501B4010E94DE1D9B01AC01C301B2016E
:100AB0000E94341D2B013C019B01AC010E94BA1E17
:100AC00021ED31E944E650E40E94C81C9B01AC01D1
:100AD000C301B2010E94341D23EC3DEC4FEF54E4FE
:100AE0000E94BA1E0E94A61D9B01CC2359F0B7FE9E
:100AF00012C0F7FE03C0285037400DC09B01285F8D
:100B0000384F09C0F7FC03C024E833E002C02CE7EB
:100B10003CEF261B370BC901CF91FF90EF90DF9080
:100B2000CF90BF90AF909F908F907F906F905F908D
:100B30004F90089540E150E060E070E08DEC95E06A
:100B40000E949F1CEDECF5E085E59FE09E0F9E174F
:100B500019F02191820FFBCF9091DC05891741F0AC
:100B60001092CD0588E893E19093CF058093CE0550
:100B70000895CF92DF92EF92FF920F931F93CF933E
:100B8000DF93082F142FC0E0C62ED12CE12CF12CBE
:100B9000C11791F0D0E0D01739F01D9AC701B60106
:100BA0000E94EA07DF5FF7CF6CE370E080E090E03F
:100BB0000E94EA07CF5FECCFDF91CF911F910F9199
:100BC000FF90EF90DF90CF90089520910D0330912A
:100BD0000E0380910F03232B89F482FF0FC0982FFF
:100BE0009274B1F4826080930F0380910B03909113
:100BF0000C039093060380930503089581FD08C0BC
:100C000041E06FEF82E00E94B90581E080936601C8
:100C100008952F923F924F925F926F927F928F92A0
:100C20009F92AF92BF92CF92DF92EF92FF920F937B
:100C30001F93CF93DF93CDB7DEB72A970FB6F89403
:100C4000DEBF0FBECDBF1092CD0544E750E060E19E
:100C500070E081E193E00E949F1CE1E1F3E085E513
:100C600093E79E0F9E1719F02191820FFBCF909171
:100C700084038913B1C0E0903003F12C00912F035D
:100C80009DECC92E92E0D92E612C712C10E028EA3F
:100C9000822E24E0922EA12CB12C669C9001679CA0
:100CA000300D300D11242F503109E29EC001E39E1A
:100CB000900DF29E900D11248A509A4F869DD0017E
:100CC000879DB00D969DB00D112498010E94D01FF4
:100CD000A50194010E94A21FF601219331936F0197
:100CE000FFEF6F1A7F0A25E062167104B1F61091CA
:100CF000340304E6011BE4E61E9FC00111249C831B
:100D00008B8320903503422C512C612C712CE09068
:100D10007F03F09080038CE697E06C01CE18DF082B
:100D200087EB92E09A8389831A86312C80E1882EA2
:100D300087E2982EA12CB12C9A85911B99871916C0
:100D400014F0412F01C0402FE985EE02D00111249B
:100D500091010E94D01F6D837E838F839887242FFB
:100D600030E0D9010E94C11F9B01AC016D817E81E1
:100D70008F8198850E94A21FDA01C9018C599F4F6B
:100D8000AF4FBF4F84199509A609B709F9852F2FD1
:100D9000FF0F330B289FA001299F500D389F500D46
:100DA00011242B813C81240F351FD6010E94C11FC5
:100DB000A50194010E94801F2E0D3F1DE981FA813B
:100DC00021933193FA83E983FA85F65FFA87FE3639
:100DD00009F0B2CF81E008C043E064E686E00E94FB
:100DE000B9050E94310780E02A960FB6F894DEBF5D
:100DF0000FBECDBFDF91CF911F910F91FF90EF906C
:100E0000DF90CF90BF90AF909F908F907F906F902A
:100E10005F904F903F902F900895CF93C82F1092DE
:100E2000CD05E1E1F3E095E583E78E0F8E1719F02C
:100E30002191920FFBCF9093840344E750E060E14F
:100E400070E081E193E00E94AF1C0E940906C1306E
:100E500031F441E064E18FE0CF910C94B905CF917A
:100E60000895E1E1F3E081E280832EE1218397E1BF
:100E700092838383248395832AE5258B9AE0968B3E
:100E800034E6378B34E436833DE23783108630E432
:100E9000318739E1328748E143874FE0448715863F
:100EA000168642E247874EE0408B45E3418B328B0A
:100EB000838B83E5848B88E2808F138E148E158E4E
:100EC000268F81E4878F10A211A212A282E383A34E
:100ED00014A212A611A614A613A616A615A610AA49
:100EE00017A612AA11AA16A215A210A617A213AA33
:100EF0002EE734E03093800320937F0328E230E034
:100F000035AB24AB9093810388E790E09093830303
:100F10008093820380E00C940D07EDECF5E085E50D
:100F20009FE09E0F9E1719F02191820FFBCF8093B7
:100F3000DC0540E150E060E070E08DEC95E00E945F
:100F4000AF1C41E064E18FE00C94B90590E0FC0136
:100F5000E55CFE4F2491FC01E95DFE4F84918823FE
:100F600099F090E0880F991FFC01E35EFE4FA59178
:100F7000B491FC01ED5EFE4F859194918FB7F8948A
:100F8000EC91E22BEC938FBF08953FB7F8948091DA
:100F9000E2059091E305A091E405B091E50526B541
:100FA000A89B05C02F3F19F00196A11DB11D3FBFA1
:100FB000BA2FA92F982F8827820F911DA11DB11D2F
:100FC000BC01CD0142E0660F771F881F991F4A952B
:100FD000D1F708958F929F92AF92BF92CF92DF92F6
:100FE000EF92FF926B017C010E94C5074B015C01EF
:100FF000C114D104E104F104F1F00E94C507DC0141
:10100000CB0188199909AA09BB09883E9340A1051B
:10101000B10570F321E0C21AD108E108F10888EEA9
:10102000880E83E0981EA11CB11CC114D104E104F8
:10103000F10419F7DDCFFF90EF90DF90CF90BF90D4
:10104000AF909F908F9008951F920F920FB60F92BE
:1010500011242F933F938F939F93AF93BF938091CE
:10106000DE059091DF05A091E005B091E10530919A
:10107000DD0523E0230F2D3720F40196A11DB11DBE
:1010800005C026E8230F0296A11DB11D2093DD05A2
:101090008093DE059093DF05A093E005B093E10512
:1010A0008091E2059091E305A091E405B091E505FA
:1010B0000196A11DB11D8093E2059093E305A093D5
:1010C000E405B093E505BF91AF919F918F913F915A
:1010D0002F910F900FBE0F901F901895CF93DF9315
:1010E000CDB7DEB7EF970FB6F894DEBF0FBECDBF1A
:1010F000789484B5826084BD84B5816084BD85B5F3
:10110000826085BD85B5816085BD80916E008160FE
:1011100080936E00109281008091810082608093A4
:1011200081008091810081608093810080918000A6
:101130008160809380008091B10084608093B100D1
:101140008091B00081608093B00080917A008460CB
:1011500080937A0080917A00826080937A008091F7
:101160007A00816080937A0080917A008068809311
:101170007A001092C10082E08093C0001092C500F6
:1011800080E18093C4008091C10088698093C10090
:101190008DE00E94A60708E211E034E0F32EF00E85
:1011A000D8018D918D010E94A607F012F9CF809190
:1011B00080008068809380008091800080628093AE
:1011C00080008091B00080688093B0008091B00072
:1011D00080628093B00088EE93E09093D802809371
:1011E000D7029093DA028093D9029093DC02809325
:1011F000DB029093DE028093DD020E9456046CE2D3
:1012000071E080E090E00E94EA070E949A05109247
:10121000CD050E9409068091CD05882321F08150DB
:101220008093CD05F6CF0E949A050E940906409151
:10123000CD054F5F68E282E00E94B905E0E4F1E08D
:1012400095E09E0F2BB1DF018191822B8BB920910C
:101250006D008C91822B80936D009E13F3CF84E000
:10126000809368008091680081608093680081E0CD
:1012700080936B0015E00CE024E0D22E4498459852
:101280001092B9000093B800D092BC001092720284
:101290001092710240E86BE688E60E94330162E337
:1012A00070E080E090E00E94EA0743E06BE688E6A9
:1012B0000E94330140E06AE188E60E94330148E180
:1012C0006BE188E60E94330142E067E388E60E9412
:1012D00033016AE070E080E090E00E94EA076AE093
:1012E00070E080E090E00E94EA0726E143E254E0EB
:1012F0006AEA87E70E94690183E294E0FC01319683
:10130000DC01AE17BF0730F42C9130813D93208370
:101310003197F7CF0296B4E089339B0779F765E000
:1013200070E080E090E00E94EA070E9457018091FF
:101330001E0590911F05A0912005B09121058857A9
:101340009C4EAF4FBF4F8093400490934104A093B5
:101350004204B093430440E461E08EE10E94330113
:1013600041E062E08EE10E94330164E670E080E0DB
:1013700090E00E94EA070E94550281E10E948502E6
:10138000F82E82E10E948502811121C040E760E0D1
:101390008EE10E94330140E261E08EE10E94330160
:1013A00040E062E08EE10E94330164E670E080E09C
:1013B00090E00E94EA0740E16CE188E60E94330178
:1013C0008091710290917202892B39F529C0FF201A
:1013D000E9F282E5E82E81E0F82E90E1A92E91E075
:1013E000B92EF70161917191819191917F010E94D4
:1013F000DE1D9B01AC0160E070EA84E996E40E9486
:10140000341DD5016D937D938D939D935D01BEE554
:10141000EB16B1E0FB0629F7B9CF115009F02ECF3A
:101420000E94C5077093F6046093F50480E092E093
:1014300090930E0380930D0388EC90E09093F80452
:101440008093F70480910F03806880930F0389EFE6
:1014500094E0A5E08A2E880E8AAE82EC90E0B5E09A
:101460009B2E980E9BAE80901E0590901F05A0901D
:101470002005B090210580911C0590911D057401F7
:10148000E81AF90AC701181619060CF0B9C110EECE
:10149000811A11EB910A90921D0580921C05809192
:1014A000B5038F5F833019F08093B50302C01092AB
:1014B000B503F5E4EF2EF1E0FF2E45E853E06CE0D4
:1014C00075E009E914E0DB0120E030E08FB7F89423
:1014D000F70191917F01E92FF0E0EE0FFF1FE0503F
:1014E000FF4FC080D1808FBFFA01A080B180828180
:1014F00093818A0D9B1D0296A480B5808A0D9B1D49
:101500008C0D9D1D9695879596958795ED91FC91EF
:10151000119733978E179F0728F4FC013296119686
:10152000FC93EE93ED91FC9111973396E817F90730
:1015300020F4029711969C938E938091B503F90144
:10154000EE0FFF1FE20FF31FE80FF11DEE0FFF1F5D
:10155000EB57FC4FD182C08280919804882369F0B8
:10156000815080939804F801808191818538F3E05F
:101570009F071CF011969C938E932F5F3F4F4A5FFD
:101580005F4F12960E5F1F4F2830310509F09ECF36
:1015900010E0812F90E09595879595958795182F68
:1015A000DB012D913D91BD012D34B4E03B0724F0CA
:1015B00010682C3637400CF41064F5E064317F0776
:1015C00041F780910B05181308C080910A058A3FE6
:1015D00030F48F5F80930A0502C010920A051093C1
:1015E0000B0580911205909113058D34944074F58C
:1015F0001092070510920605109209051092080531
:101600001092020510920305109204051092050530
:101610001092FF041092FE04109201051092000532
:1016200080913A0390913B03892B81F09091F904CA
:1016300080910F03992329F080FF03C00E94E505E4
:1016400005C081FF03C08D7F80930F0380910A0541
:10165000843179F480910F0381FF12C020913A0305
:1016600030913B03232B29F41F3519F48D7F809390
:101670000F03A4E1B5E080E090E0E0E0F0E05FC0BF
:10168000173569F480E092E090930E0380930D0388
:101690008AE090E09093F8048093F70409C01B3629
:1016A00039F40E94C5077093F6046093F504E1CF06
:1016B00080913A0390913B03892B29F41F3619F44A
:1016C0000E94E505D6CF173939F480E092E0909377
:1016D000F4048093F304CDCF173A31F480911003D2
:1016E000816080931003C5CF1B3B31F48091380398
:1016F00090913903029607C0173B59F48091380343
:1017000090913903029790933903809338030C9496
:10171000F61B1E3B31F480913603909137030296FD
:1017200008C01D3B09F0A5CF809136039091370387
:10173000029790933703809336030C94F61B6D91B8
:101740007D9141E050E0653A36E0730714F440E0E3
:1017500050E09C012E5F3F4F02C0440F551F2A9559
:10176000E2F701E010E0643125E0720714F000E0D8
:1017700010E0082E02C0000F111F0A94E2F7402B60
:10178000512B6551754021E030E06F38714010F009
:1017900020E030E0BC016F5F7F4F02C0220F331F9B
:1017A0006A95E2F7242B352BE22BF32B03968C3032
:1017B000910529F62AE333E069EF74E0D9018D91B0
:1017C0009D919D018E239F2341E0892B09F440E0E8
:1017D000DB014D93BD018AAC8A12F0CF9091FA04DF
:1017E00080910F0391110C94FD1B2091F104309115
:1017F000F2042333310514F00C94FD1B0C94091CE6
:101800008091D804823009F447C330F4882359F01A
:10181000813009F404C139C5833009F434C58430FA
:1018200009F431C532C581E08093D8048091C603A4
:101830009091C703A091C803B091C9038816990677
:10184000AA06BB0608F4EBC010EA810E16E8911E4A
:1018500011E0A11EB11C8092C6039092C703A09212
:10186000C803B092C9030E94550280911003817091
:10187000782E07EE12E050E1C52E51E0D52E6DEC2A
:10188000E62E65E0F62ED6012D913D914D915D91AC
:101890006D01F80164857585072E000C880B990B86
:1018A0002CAF3DAF4EAF5FAF0E94DE1D2CAD3DAD06
:1018B0004EAD5FAD0E94BA1E0E94A61DD8011D96B6
:1018C0007C936E931C97711009C0F70127813085B6
:1018D000621B730B1D967C936E931C970E5F1F4FBC
:1018E000F2E0EF0EF11C22E00D3E120761F67720C8
:1018F00009F4CBC48091C2039091C303A091C403A7
:10190000B091C503892B8A2B8B2B41F48092C203A3
:101910009092C303A092C403B092C5038091C20306
:101920009091C303A091C403B091C503881A990A8A
:10193000AA0ABB0A30E8831633EC930639ECA306F7
:1019400031E0B30608F05BC01D9A4090C20350908E
:10195000C3036090C4037090C5038090C603909049
:10196000C703A090C803B090C90320915E01ECEBBF
:10197000F3E046EB242E43E0342E04ED15E043EF74
:1019800052E0481459046A047B0441F4DA018D9151
:101990009C9191838083D1018D939C93DA018D91E9
:1019A0009D91AD016F0160817181861797071CF4CD
:1019B0009183808321E07101D1016D917C91119718
:1019C000681779071CF48D939C9321E03296B2E05E
:1019D0002B0E311CD6016D917C91D7018D919C917C
:1019E000860F971F95958795D8018D939D938D01AF
:1019F000B3E0E23CFB0729F620935E0146C48091E8
:101A000010038E7F809310031092C2031092C303C1
:101A10001092C4031092C5030E948D0736C48091B2
:101A2000D8048F5F8093D804809140049091410442
:101A3000A0914204B091430488169906AA06BB06F9
:101A400008F42AC2E0E78E0EE7E19E1EA11CB11C3D
:101A50008092400490924104A0924204B0924304C8
:101A600080913F04811179C08FEE0E94280184EC9F
:101A70000E9412018091BB0080933A0484E80E9486
:101A800012018091BB0014E91093BC0080933904CB
:101A900044EF64EF87E70E9433018EEE0E94280135
:101AA00086EF8093BB0084E80E9412011093BC0073
:101AB00081E080933F04E0911E0421E02E0F253148
:101AC00009F420E080911F0490912004A09121044A
:101AD000B091220414E0E19FF0011124E653FC4F81
:101AE00080839183A283B38340915604509157041D
:101AF0006091580470915904840F951FA61FB71F59
:101B000034E0239FF0011124E653FC4F40815181C2
:101B100062817381841B950BA60BB70B80935604CF
:101B200090935704A0935804B093590420931E0433
:101B30008091400490914104A0914204B0914304EB
:101B4000885F9D4AAF4FBF4F8093400490934104FC
:101B5000A0934204B093430498C38FEE0E942801DF
:101B600084EC0E9412018091BB0080933D0484ECC0
:101B70000E9412018091BB0080933C0484E80E9483
:101B800012018091BB0094E99093BC0080933B04C8
:101B90000E9457012091390430913A04A90160E074
:101BA00070E080912D0490912E049A01AB01281BC6
:101BB000390B41095109A0912B04B0912C040E94CA
:101BC000D71F6B017C01FFE0F594E794D794C7948D
:101BD000FA95D1F76091350470913604CB01770FF7
:101BE000AA0BBB0BBC01CD01ABE0660F771F881FB2
:101BF000991FAA95D1F720913704309138048901B3
:101C0000330F220B330BA90198012C0D3D1D4E1DE6
:101C10005F1D0E94A21FC20ED31EE41EF51EAAE085
:101C2000B0E0A70196010E94D71FDC01CB01089606
:101C3000A11DB11D14E0B595A795979587951A95A7
:101C4000D1F7909351048093500440EAC41A4FE0B6
:101C5000D40AE108F108A7019601C701B6010E9464
:101C60005C1F4B015C010CE0B594A794979487949A
:101C70000A95D1F78F8E98A2A9A2BAA280902304C8
:101C800090902404A0912704B09128040E94E21FA0
:101C90002B013C018DE075946794579447948A9585
:101CA000D1F7A0912F04B09130042F8D38A149A114
:101CB0005AA10E94E21FBB2797FDB095AB2F840D60
:101CC000951DA61DB71D0296A11DB11D32E0B5954B
:101CD000A795979587953A95D1F79C01AD01305816
:101CE0004F4F5F4FA0912904B0912A040E94D71F43
:101CF0002B013C014FE076946794579447944A95A2
:101D0000D1F780913B0490913C04A0913D04B091A7
:101D10003E049C01AD0165E05695479537952795A2
:101D20006A95D1F72F8B388F498F5A8F092C000C69
:101D3000AA08BB0872E0880C991CAA1CBB1C7A95E7
:101D4000D1F7A0913104B09132042F8D38A149A16F
:101D50005AA10E94E21F9B01AC01EBE0559547950B
:101D600037952795EA95D1F72F8F38A349A35AA322
:101D7000A0912504B0912604A70196010E94E21FBC
:101D8000DC01CB01FBE0B595A79597958795FA9572
:101D9000D1F72F8D38A149A15AA1820F931FA41FFB
:101DA000B51F880D991DAA1DBB1D13E0880F991F33
:101DB000AA1FBB1F1A95D1F7BC01CD016E5F7F4FE3
:101DC0008F4F9F4F24E030E040E050E00E94A21F80
:101DD0008F88988CA98CBA8C821A930AA40AB50AA7
:101DE000A5019401AAE6B8E10E94D71F97FD0BC098
:101DF000660F771F881F991FA30192010E94801F01
:101E000069017A010AC0A30192010E94801F690141
:101E10007A01CC0CDD1CEE1CFF1C9927F7FC9A956F
:101E20008F2D7E2D6D2D9B01AC010E945C1F9B01AF
:101E3000AC01AEEDBBE00E94D71F4C01BB2497FC68
:101E4000B094AB2CA3E4B3EEA70196010E94E51F6A
:101E5000BB2797FDB095AB2F880E991EAA1EBB1EFF
:101E60001FEC810E1EE0911EA11CB11C44E0B59434
:101E7000A794979487944A95D1F7C80CD91CEA1C6B
:101E8000FB1CC0921F04D0922004E0922104F09227
:101E9000220410923F04F9C18091D8048F5F80938F
:101EA000D8040E94C50720915A0430915B047B013D
:101EB000E21AF30A28EAE21621E6F20608F4E3C180
:101EC00070935B0460935A040091F7041091F80436
:101ED00001151105C1F1609156047091570480916C
:101EE0005804909159040E94DE1D0E94721E609356
:101EF000520470935304809354049093550460915A
:101F0000500470915104CB01770FAA0BBB0BBC019D
:101F1000CD016D5475498F4F9F4F0E94DE1D2EE8F5
:101F20003BE24AE652E40E94BA1E60934C0470936E
:101F30004D0480934E0490934F0401501109109367
:101F4000F8040093F704609156047091570480914F
:101F50005804909159040E94DE1D0E94721E2B01AC
:101F60003C012091EB043091EC044091ED04509140
:101F7000EE04A6E0B0E00E94D71F4B015C01A30174
:101F80009201609152047091530480915404909195
:101F900055040E94C71C20914C0430914D0440917F
:101FA0004E0450914F040E94BA1E0E94A61DDC01EF
:101FB000CB01880D991DAA1DBB1D4C015D0103E0DD
:101FC000B594A794979487940A95D1F78092EB04DF
:101FD0009092EC04A092ED04B092EE048091E7049C
:101FE0009091E804A091E904B091EA048819990954
:101FF000AA09BB09843D3EEF93073FEFA307B30750
:102000006CF08C019D018D329140A105B10524F049
:102010000CE211E020E030E0980102C024ED3EEF38
:10202000A901475F5F4F4331510560F01216130657
:102030001CF42A50310908C02115310529F0265F0A
:102040003F4F02C020E030E040911A03429F600100
:10205000439FD00C1124F601EE0FEF2FEE1FFF0B64
:10206000E739F10514F0E6E9F0E0EA365FEFF5074D
:1020700014F4EAE6FFEFA0911B03A29FA001A39F27
:10208000500D11249A01B6E035952795BA95E1F7E0
:102090004091DB045091DC04240F351F213365E7A8
:1020A000360714F020E335E7203D8AE8380714F4BA
:1020B00020ED3AE83093DC042093DB04232F330F28
:1020C000330B25956F01C20ED31ED092DA04C09255
:1020D000D90420916A0430916B04A901415F5F4FDC
:1020E0004F31510528F410926B0410926A040CC011
:1020F000121613061CF42051310902C0205F3F4F15
:1021000030936B0420936A04209148043091490471
:10211000C401821B930B68E270E00E94810400916D
:10212000EB041091EC042091ED043091EE04009347
:1021300048041093490420934A0430934B046D32B1
:1021400091E0790714F06CE271E08B01643D7E4F01
:1021500014F404ED1EEFC8010996439760F01016C1
:1021600011061CF40A50110908C00115110529F0C7
:10217000065F1F4F02C000E010E060916A0470919A
:102180006B04072E000C880B990B0E94DE1D28EAB9
:1021900039E840E056E30E94BA1E4B015C01B701EA
:1021A00080E090E00E94DC1D9B01AC01C501B40100
:1021B0000E94BA1E20914404309145044091460487
:1021C000509147040E94C81C26EF38E24CE75FE3B9
:1021D0000E94BA1E4B015C01B801110F880B990BCC
:1021E0000E94DE1D2FE832EC45E75CE30E94BA1E38
:1021F0009B01AC01C501B4010E94C81C609344045A
:102200007093450480934604909347040E94A61D52
:102210009B012C5F3F4F2930310528F41092F004C8
:102220001092EF040EC01616170624F4AB014550A9
:10223000510903C0AB014B5F5F4F5093F0044093D3
:10224000EF0440911C032091EF043091F004429F71
:10225000C001439F900D112474E0959587957A9560
:10226000E1F78739910514F086E990E08A36BFEFEF
:102270009B0714F48AE69FEFC81AD90AD092DA04B1
:10228000C092D90402C01092D8040E94C50760937E
:102290001E0570931F0580932005909321052091C2
:1022A000F5043091F604FB01E21BF30B9F01F09360
:1022B000D704E093D604203F3A4038F37093F604F5
:1022C0006093F50426E048E651E06BE388E60E945F
:1022D00069018091680190E0982F88272091690119
:1022E000822B91958195910923E0959587952A9563
:1022F000E1F7909300038093FF0280916A0190E0E0
:10230000982F882720916B01822B919581959109B7
:1023100043E0959587954A95E1F790930203809362
:10232000010380916C0190E0982F882720916D0126
:10233000822B63E0959587956A95E1F79093040366
:10234000809303038091F3049091F404009709F4BF
:1023500050C001979093F4048093F304ECE5F4E00B
:1023600020E030E08F3F11E0910721F410821182CC
:1023700012821382D901A951BD4F5896CD90DC909D
:1023800059970D2C000CEE08FF08408151816281A5
:1023900073814C0D5D1D6E1D7F1D419351936193A3
:1023A0007193D901A353BA4F19E075956795579565
:1023B00047951A95D1F712965C934E9311972E5F1D
:1023C0003F4F2630310571F6892B99F48091D20563
:1023D0009091D30592509093D3058093D20510929B
:1023E00037031092360310923903109238030E947B
:1023F0008D078091FF02909100032091CE053091CE
:10240000CF05821B930B909300038093FF02809172
:102410000103909102032091D0053091D105821BD8
:10242000930B909302038093010380910303909197
:1024300004032091D2053091D305821B930B909316
:102440000403809303030E94C5076B017C01809104
:10245000840490918504B601681B790B80E090E0BC
:102460000E94DC1D29E134E442E959E30E94BA1ECE
:102470002B013C01D0928504C092840428E734E00B
:10248000388F2F8B47EE52E058A34F8FCE01019625
:102490001C018A0193E09B8FC12CD12C7601AF895E
:1024A000B88D8D909D90AD90BC90D501C401F4E0A5
:1024B000B695A79597958795FA95D1F7F8019183E9
:1024C0008083408D518D481B590B052E000C660BE7
:1024D000770B480D591D6A1D7B1DEF89F88D4193BF
:1024E000519361937193F88FEF8BBC010E9481042B
:1024F000C60ED71EE81EF91ED80152966D917C912A
:102500005397072E000C880B990B0E94DE1DA30128
:1025100092010E94BA1E0E94A61DF101619371935F
:102520001F01FB8DF150FB8F0E5F1F4FF111B7CFD5
:10253000BE016F5F7F4F8CE191E00E949404BE0169
:102540006F5F7F4F8CE694E00E949404CD2CDE2CCC
:10255000EF2CFF24E7FCFA9417E6C11A13E0D10A26
:102560007CE1A72E71E0B72E0CE614E0E7EEEE2E2C
:10257000E2E0FE2E412C512C320122E3C21621E072
:10258000D206F8F4D7018D919C91F5012281338117
:10259000821B930B092E000CAA0BBB0B56E0880F75
:1025A000991FAA1FBB1F5A95D1F7408151816281A3
:1025B0007381840F951FA61FB71F80839183A28309
:1025C000B383D50112966D917C911397F701819198
:1025D00091917F010E948104460E571E681E791E4C
:1025E000D7011A968D919C911B97F8012281338116
:1025F000821B930B092E000CAA0BBB0BBA2FA92F21
:10260000982F88274081518162817381840F951FA3
:10261000A61FB71F81939193A193B1938F01F4E00B
:10262000AF0EB11C28E2A21621E0B20609F0A5CF38
:10263000209126013091270180910F03213D3140E7
:1026400014F0806801C08F7780930F0380911E0182
:1026500090911F01BC010E9481046B017C0180915B
:10266000260190912701BC010E9481044601570177
:10267000860E971EA81EB91E8F8A988EA98EBA8EB6
:102680008091220190912301BC010E948104680D78
:10269000791D8A1D9B1D0E94DE1D8B019C013595B5
:1026A000279517950795A9EFCA2EDD24DA94AFE197
:1026B000EA2EAFE5FA2EC01AD10AE20AF30A27E39E
:1026C00036E344E35FE30E94BA1EA70196010E942D
:1026D000BA1EA70196010E94BA1E9B01AC0166EFCB
:1026E00078E487ED9FE30E94C71C9B01AC01C70102
:1026F000B6010E94BA1E6B8F7C8F8D8F9E8F0091CA
:102700001E0110911F012091260130912701032EF7
:10271000000C440B550BB801012E000C880B990BD3
:102720000E94170590930803809307036F89788DA3
:10273000898D9A8D0E94DE1D6B017C01DC01CB012D
:10274000B595A7959795879539EF832E99249A94F7
:102750003FE1A32E3FE5B32E881A990AAA0ABB0AC5
:1027600027E336E344E35FE3C701B6010E94BA1EE4
:10277000A50194010E94BA1EA50194010E94BA1EEF
:102780009B01AC0166EF78E487ED9FE30E94C71CD4
:102790009B01AC01C501B4010E94BA1EA7019601BC
:1027A0000E94BA1E0E94A61D9B01AC0180912201CD
:1027B00090912301BC01990F880B990B0E9417057A
:1027C00090930A0380930903A0917204B09173045B
:1027D0002F89388D498D5A8D0E94E21F6B017C0133
:1027E000B80180916E0490916F040E9481044B01A6
:1027F0005C0160912601709127018091760490918F
:1028000077040E948104A5019401260F371F481FF9
:10281000591FA0912201B09123010E94E21FA7013C
:102820009601261B370B480B590BCA01B9010E94B0
:10283000DE1D2B8D3C8D4D8D5E8D0E94BA1E0E943B
:10284000A61D9B01AC0160911E0170911F0180913A
:102850007604909177042CAF3DAF4EAF5FAF0E94EE
:1028600081046B017C0160912601709127018091A8
:102870006E0490916F040E94810446015701861AEC
:10288000970AA80AB90AC501B4012CAD3DAD4EADF9
:102890005FAD0E9417052091450330914603820FDA
:1028A000931F6AE070E00E946C1F70930C036093AA
:1028B0000B03C301B2010E94DE1D2B8D3C8D4D8D9B
:1028C0005E8D0E94BA1E0E94A61D20910F0321FD5D
:1028D00014C040916804509169049A01E3E0359571
:1028E0002795EA95E1F75A01A21AB30A9501260F36
:1028F000371F309369042093680420916804309155
:10290000690443E0359527954A95E1F7AB01421BF1
:10291000530B50936B0440936A040E94AC01809166
:10292000F9029091FA029093B8048093B7048091D1
:10293000FB029091FC029093BA048093B9048091B9
:10294000FD029091FE029093BC048093BB040E9410
:10295000C5072B0120911205309113052D3D15E07F
:102960003107A4F080913303203D47E0340754F44D
:10297000B9016C5D7540869FA001879F500D1124A1
:10298000852F869590E8992E981A02C090E8992E86
:1029900020903103312C0CE0602E05E0702E8FED7D
:1029A00094E09EA78DA7A1E1B3E0BC8FAB8F5D0142
:1029B000FC0140E050E080E8882ED3016D917D91CC
:1029C0003D016D3DB5E07B072CF0603D17E07107E0
:1029D00064F008C08CED95E0861B970B843FA1E066
:1029E0009A0734F084EF91E003C0CB018C5D9540F1
:1029F0004230510509F469C08C01000F012F001FFE
:102A0000110B1195D801AA0FBB1FA353BD4FED9019
:102A1000FC90F88EEF8A7801EE0CFF1CD701A153D1
:102A2000BD4FED90FC90AF89B88DEA1AFB0A169560
:102A3000102F0027179507956C01C01AD10AEC9C3E
:102A40008001ED9C100DFC9C100D1124000F012F36
:102A5000001F110B11950A0F1B1F11830083829D0C
:102A6000D001839DB00D929DB00D11248B2F8695C2
:102A7000B82DB81BB99DC0011124880F892F881F5C
:102A8000990B9195D501FC90F89E8001F99E100D4F
:102A90001124000F012F001F110B1195DA01AF5205
:102AA000BB4F0C93D50112961C91189FD001199F12
:102AB000B00D1124CD01880F892F881F990B919596
:102AC000DA01AD53BB4F8C9302C0918380836C3D80
:102AD00075403CF480819181919581959109918314
:102AE00080834F5F5F4F329613E0A10EB11C4330DD
:102AF000510509F062CF2C3444E034073CF0213D0D
:102B000057E035072CF020ED37E002C02CE434E02C
:102B10002C543440AFEFB9E00E94C11F24E833E0E9
:102B200040E050E00E94801F832F9927FC01EE0FA8
:102B3000FF1FE954FD4F60817181FC01EE0FFF1F03
:102B4000E754FD4F0190F081E02DE61BF70B982F25
:102B500088278901081B190BE09FC001E19F900D98
:102B6000F09F900D1124892F9927680F791F70937A
:102B7000E6046093E5048091B0048F5F8093B00415
:102B80008091F3049091F404892B31F480910D032A
:102B900090910E03892B11F01D9A08C080910F03AC
:102BA00082FD2D9880910F0381FD2D9A40911E0585
:102BB00050911F0560912005709121058091AC0412
:102BC0009091AD04A091AE04B091AF048417950725
:102BD000A607B70700F580910F0387FD19C08B7F0B
:102BE00080930F031D9A80911E0590911F05A0915F
:102BF0002005B091210580569947AE4FBF4F809375
:102C0000AC049093AD04A093AE04B093AF0403C0A2
:102C1000846080930F030E94C5071092B6028091D2
:102C2000700190918604891B612C22E0722E12E3C0
:102C30003CE6832E37E0932E48EEA42E43E0B42EDC
:102C400057E0E52EF12C00EF2FEF280F882309F431
:102C5000EEC180916F0190916E01891B8F778F3447
:102C600008F0E5C180918604E82FF0E0EF58FE4FB0
:102C7000908130917001381719F08F5F809386042E
:102C80008091AB04811104C081E0943259F4CBC12E
:102C9000813019F49D3431F4C0C1823029F49C3361
:102CA00009F4BDC180E0BFC1833069F4913408F0FC
:102CB000BCC19093AA049093B5021092A9041092FB
:102CC000B40284E0B0C1843049F49093B30280919F
:102CD000B50298279093B50285E0A5C1853009F02B
:102CE000A2C1E091A9044091AA043091B502E41771
:102CF00060F439273093B50231E03E0F3093A904D8
:102D0000F0E0ED58FD4F90838EC139138AC1809158
:102D1000B302853709F43CC108F05CC08D3609F474
:102D20002BC130F5873609F402C1B0F4853609F4B9
:102D3000CDC008F0F8C0843609F068C1098383E08B
:102D40008A831B8280E090E0A0E0B0E78C839D83C3
:102D5000AE83BF8367E0E4C0893609F409C108F493
:102D6000F4C08C3609F052C166E087E093E04BC1B5
:102D7000813709F410C148F48F3609F401C108F015
:102D800003C167E08FE894E03EC1833709F417C1BF
:102D900008F005C11A82198280917F039091800307
:102DA0009C838B839E828D82B886AF821A86198619
:102DB0001C861B861D861E861F86188A80914503E9
:102DC000909146039A8B898B1B8A1C8A1D8A1E8AC6
:102DD00066E1A6C08E3C09F406C108F58A3C09F4F8
:102DE00053C090F4883709F4A6C0883C09F444C065
:102DF000873709F00BC165E080E00E94040492EC83
:102E0000C92E90E0D92ED0C08C3C09F443C008F004
:102E1000E1C00E9428046AE08AE393E040C0843D58
:102E200009F48DC068F4803D09F4CDC0D8F1833D2C
:102E300009F0ECC00E94280462E085E093E02FC016
:102E4000803F09F486C070F48F3E09F0DFC00E9415
:102E5000280462E088E393E00E94B60362E086E320
:102E600093E01DC08A3F09F4C8C08E3F09F0CEC070
:102E700068E087E894E0C7C060E189E994E00E94D7
:102E8000B60310939804CDC00E9428046EE181E13E
:102E900093E005C00E94280467E08FE293E00E945F
:102EA000B603BFC00E94280466E1CE0101960E94CD
:102EB000B6038B819C819093800380937F038989E3
:102EC0009A899093460380934503ABC08091D604C2
:102ED0009091D7049A8389838091710290917202B4
:102EE0009C838B83FE82ED8220910F0323FF05C01C
:102EF00082E090E0A0E0B0E003C080E090E0DC0180
:102F000024FD846026FD886025FD806121FD8160AF
:102F10008F839887A987BA878091CD058B876BE0CF
:102F2000CE01019670C062E187EE92E06CC060E174
:102F300080E391E068C068E387E493E064C00E94A6
:102F4000280468E387E493E0AACF60E187ED92E08C
:102F50005AC064E080E00E94040462E088E393E0E9
:102F60000E94E50362E086E393E00E94E50352C01D
:102F700060E18CE095E047C066E08BEE94E043C0F2
:102F800067E08FE293E03FC06EE181E193E03BC0F8
:102F900083EE90E006C06AE08AE393E034C087ECF9
:102FA00090E00E943F043DC0F60184910E94CD0351
:102FB000FFEFCF1ADF0A2BAD2C11F6CF2BC068E044
:102FC00088E291E020C080910F0381FD19C00E942A
:102FD000310716C080910F0381FD12C07092F40476
:102FE0006092F3040DC080910F0381FD09C08091B0
:102FF000100381608093100303C080E00E940D07DE
:103000000E9428040EC00E942E040BC060E081E0E4
:103010000E9404040E94F60304C082E004C083E01E
:1030200002C080E020E08093AB04822F0DCE0E948E
:10303000C507641975096A387240CCF30E94AC0167
:10304000E7EBF4E0BDEEEB2EB2E0FB2E01EB14E07B
:1030500083E0C82ED12CD7011C962D913C911D9751
:1030600080819181280F391F21933193D8018D914F
:103070009C91820F931FB6010E946C1FD7016D9324
:103080007D937D0135952795D8012D933D938D0135
:10309000B4E0ED3BFB07F9F62091E3043091E40442
:1030A000A9014B5B5F4F10910F0380910B0390912F
:1030B0000C034B38510568F515FF2BC040910503F3
:1030C00050910603841B950B8D34EFEF9E0714F48B
:1030D00088599E4F843B910514F08856914017FD06
:1030E00004C0409110034670C1F060912903689FAD
:1030F000A001699F500D1124CA0175E0959587952F
:103100007A95E1F7281B390B3093E4042093E3040C
:1031100004C09093060380930503F12FF074F9AF78
:1031200016FF7AC02091DD043091DE048091E50421
:103130009091E604821B930BAC0197FF04C04427D7
:103140005527481B590B433351050CF445C040919A
:10315000100343FD41C04091D4045091D504840F25
:10316000951F9093D5048093D404AC0197FF04C0BD
:1031700044275527481B590B413052404CF1AC01B4
:1031800097FF02C041505E4F452F550F550B459597
:10319000052E000C660B770BC090E704D090E80476
:1031A000E090E904F090EA044C0D5D1D6E1D7F1D5A
:1031B0004093E7045093E8046093E9047093EA04B1
:1031C00060E072E00E946C1F9093D5048093D40459
:1031D00081E08093D30416C08091D304882391F0BA
:1031E0008091EB049091EC04A091ED04B091EE0479
:1031F0008093E7049093E804A093E904B093EA0471
:103200001092D3048091D9049091DA04280F391FC9
:103210003093E6042093E50414FF22C0C090E1043B
:10322000D090E204D7FE03C0D194C194D10880911C
:10323000DF049091E00497FF03C091958195910977
:103240009601C816D9060CF49C01213082E038079B
:1032500014F020E032E06901330FEE08FF0803C0EC
:10326000C12CD12C760136E0632E35E0732EA1ED12
:10327000B4E0BCABABABEDECF4E0F8A7EFA329EC0A
:1032800034E03EA32DA345EC54E05CA34BA383ECB8
:1032900094E09AAB89ABADEBB4E0B8ABAFA7EEEF7F
:1032A000F4E0F88FEF8B212C312C012F0871ADA5A4
:1032B000BEA5AD90BD90BEA7ADA7AA0CBB1CEF8D5F
:1032C000F8A126813781D3014D915C91C90137FF67
:1032D00004C088279927821B930B81389240ACF455
:1032E000C501821B930B840F951F8138EEE39E0767
:1032F00014F080E89EE38038F1EC9F0714F480E836
:1033000091ECD3018D939C9303C0F3011182108241
:10331000D3018D919C91880F892F881F990BEB8D7C
:10332000FC8D2181289FD001299FB00D11242D01F2
:1033300086E0559447948A95E1F7608170E0C50175
:103340000E9481049B01AC0196E055954795379505
:1033500027959A95D1F72DAB3EAB4FAB58AF8DA8C3
:103360009EA8002309F497C0F101E35BFE4F808122
:1033700091818A0D9B1D853F31E0930714F084EF06
:1033800091E08C304EEF940714F48CE09EEFF10145
:10339000E95FFC4F208131815C01A21AB30AF1017F
:1033A000EF5EFC4F85A196A18A0D9B1DAF89B88D5C
:1033B0008D909C90880E991EB1E18B16B7E29B060A
:1033C00024F0A0E18A2EA7E29A2EE0EF8E16E8ED17
:1033D0009E0624F4F0EF8F2EF8ED9F2EAF89B88D66
:1033E0008D929C926091260370E00E948104AB0153
:1033F000BC01E7E07595679557954795EA95D1F734
:1034000080912803B5E08B9FC0011124AA24BB241E
:10341000A81AB90A4A155B052CF05A0184179507BA
:103420000CF45C016091270370E0C4010E948104E8
:103430009B01AC01FCE05595479537952795FA958A
:10344000D1F729A73AA74BA75CA7D201A21BB30BC0
:10345000A70196010E94E21FDC01CB0169E0B5954E
:10346000A795979587956A95D1F749A45AA4480ED0
:10347000591EADA9BEA9AA19BB090E94E21FDC0111
:10348000CB0179E0B595A795979587957A95D1F772
:103490004501880E991EABA9BCA96D91BCABABAB25
:1034A00070E0EF8DF8A1868197810E948104092C3C
:1034B000000CAA08BB08DC01CB0176E0B595A79506
:1034C000979587957A95D1F7881A990AAA0ABB0A1F
:1034D000AF8DB8A116968D919C911797EFA1F8A585
:1034E00020813181AC01421B530B9A01819391934E
:1034F000F8A7EFA3ADA1BEA14D915C911197EBA1EF
:10350000FCA180819181840F951F41935193FCA36D
:10351000EBA32D933D93BEA3ADA3A9A9BAA96D9129
:10352000BAABA9AB70E0820F931F0E948104D20155
:10353000A80DB91DAB01BC01E5E0759567955795E0
:103540004795EA95D1F7A41BB50BEFA5F8A9A19370
:10355000B193F8ABEFA7F2E02F0E311C2F8D38A1FD
:103560002E5F3F4F38A32F8F32E0630E711C4B8DBF
:103570005C8D4D5F5F4F5C8F4B8F8F89988D02966E
:10358000988F8F8B94E02916310409F090CE6091CA
:10359000320370E0615F7F4F660F771F8091E30415
:1035A0009091E4040E9481044B015C0165E0B594B4
:1035B000A794979487946A95D1F78091F10290919E
:1035C000F2027401E81AF90A6091180370E0C70169
:1035D0000E9481044090020550900305609004050C
:1035E00070900505940197FE04C0222733272819FF
:1035F00039092333310524F5DC01CB01840D951DF8
:10360000A61DB71D8F3FEFEF9E07AE07EFE0BE0789
:1036100024F08EEF9FEFAFEFBFE082309105A10560
:10362000F0EFBF0724F482E090E0A0E0B0EF8093D9
:10363000020590930305A0930405B093050508C007
:1036400010920205109203051092040510920505D0
:103650006091170370E0C7010E9481046B017C0137
:1036600046E0F594E794D794C7944A95D1F79091A2
:1036700019032CE231E04901891A910844275527A2
:1036800048195909C416D5062CF0A6018C149D04BE
:103690000CF4A4018091020590910305A09104050A
:1036A000B09105053DE0B595A795979587953A9515
:1036B000D1F786302FEF920734F08B3F91052CF035
:1036C0008AEF90E002C086E09FEF9A01280F391F31
:1036D0003093C2042093C1044091E5045091E60464
:1036E0008091BD049091BE04BA01681B790BA09132
:1036F000BF04B091C004FB01EA0FFB1FE21BF30BF8
:10370000F093D802E093D7026A1B7B0B620F731F02
:103710007093DA026093D902480F591FCA018A0FC9
:103720009B1F820F931F9093DC028093DB024A1B46
:103730005B0B421B530B5093DE024093DD02861756
:1037400097070CF4CB01841795070CF4CA018E1768
:103750009F070CF4CF0140917F0350918003A0910B
:103760001205B0911305E7EDF2E024E0E22E6CE6DD
:1037700077E06B01C81AD90A1270F12E08EE13E037
:103780008D3637E0930734F0208131812C0D3D1DBB
:103790003183208320813181241735073CF02D3679
:1037A00067E0360724F02CE637E001C09A01318348
:1037B0002083AC3424E0B2072CF489AC811002C021
:1037C00051834083F11002C011830083EA94329642
:1037D000E110D6CF0E94560480E090E0892B11F4CE
:1037E0000C94330A0E9400000C94270A81E00E9486
:1037F0000D0710920A050C94390B83FD19C0109225
:10380000FF041092FE0410920105109200058860DA
:103810000DC083FF08C01092070510920605109294
:1038200009051092080580910F03877F80930F038D
:103830008091FB04882389F080910F03877F809318
:103840000F0384FD1BC01092FF041092FE0410921F
:1038500001051092000580610FC080910F0384FF65
:1038600008C01092070510920605109209051092E3
:10387000080580910F038F7E80930F038091F904D8
:10388000811105C080910F03816080930F038091A7
:10389000FC04882341F180910F0386FD29C08064D8
:1038A00080930F038091EB049091EC04A091ED04C0
:1038B000B091EE048093E7049093E804A093E904A8
:1038C000B093EA048091E5049091E6049093DE04BD
:1038D0008093DD041092DC041092DB041092DA0471
:1038E0001092D90405C080910F038F7B80930F0342
:1038F0008091FD04882399F080910F0385FF02C019
:103900000C944511806280930F0380910B0390917A
:103910000C0390930603809305030C94451180914A
:103920000F038F7D80930F030C944511FC010590CC
:103930000020E9F7809590958E0F9F1F0895DC0178
:10394000CB01FC01F999FECF06C0F2BDE1BDF89AAA
:10395000319600B40D9241505040B8F70895DC0103
:10396000CB0103C02D910E94BA1C41505040D0F7AA
:103970000895262FF999FECF1FBA92BD81BD20BDB3
:103980000FB6F894FA9AF99A0FBE01960895505816
:10399000BB27AA270E94DF1C0C94301E0E94221E07
:1039A00038F00E94291E20F039F49F3F19F426F4C4
:1039B0000C941F1E0EF4E095E7FB0C94191EE92FE2
:1039C0000E94411E58F3BA176207730784079507D0
:1039D00020F079F4A6F50C94631E0EF4E0950B2EFE
:1039E000BA2FA02D0B01B90190010C01CA01A00151
:1039F0001124FF27591B99F0593F50F4503E68F1AC
:103A00001A16F040A22F232F342F4427585FF3CFEC
:103A1000469537952795A795F0405395C9F77EF4BD
:103A20001F16BA0B620B730B840BBAF09150A1F006
:103A3000FF0FBB1F661F771F881FC2F70EC0BA0F8C
:103A4000621F731F841F48F4879577956795B79514
:103A5000F7959E3F08F0B0CF9395880F08F099270F
:103A6000EE0F9795879508950E94481D0C94301E7F
:103A70000E94291E58F00E94221E40F029F45F3F48
:103A800029F00C94191E51110C94641E0C941F1EE5
:103A90000E94411E68F39923B1F3552391F3951BBE
:103AA000550BBB27AA2762177307840738F09F5F5F
:103AB0005F4F220F331F441FAA1FA9F335D00E2ECC
:103AC0003AF0E0E832D091505040E695001CCAF739
:103AD0002BD0FE2F29D0660F771F881FBB1F2617FC
:103AE00037074807AB07B0E809F0BB0B802DBF01D3
:103AF000FF2793585F4F3AF09E3F510578F00C94A2
:103B0000191E0C94641E5F3FE4F3983ED4F386952F
:103B100077956795B795F7959F5FC9F7880F911DC2
:103B20009695879597F90895E1E0660F771F881FAE
:103B3000BB1F621773078407BA0720F0621B730B61
:103B4000840BBA0BEE1F88F7E09508950E94AD1D17
:103B50006894B1110C94641E08950E94491E88F067
:103B60009F5798F0B92F9927B751B0F0E1F0660F41
:103B7000771F881F991F1AF0BA95C9F714C0B13082
:103B800091F00E94631EB1E008950C94631E672FAC
:103B9000782F8827B85F39F0B93FCCF386957795B1
:103BA0006795B395D9F73EF490958095709561959A
:103BB0007F4F8F4F9F4F0895E89409C097FB3EF4C5
:103BC00090958095709561957F4F8F4F9F4F99236A
:103BD000A9F0F92F96E9BB279395F69587957795E8
:103BE0006795B795F111F8CFFAF4BB0F11F460FFA8
:103BF0001BC06F5F7F4F8F4F9F4F16C0882311F000
:103C000096E911C0772321F09EE8872F762F05C013
:103C1000662371F096E8862F70E060E02AF09A95AE
:103C2000660F771F881FDAF7880F9695879597F9A3
:103C3000089597F99F6780E870E060E008959FEF2E
:103C400080EC089500240A94161617061806090633
:103C5000089500240A941216130614060506089502
:103C6000092E0394000C11F4882352F0BB0F40F48A
:103C7000BF2B11F460FF04C06F5F7F4F8F4F9F4FCA
:103C8000089557FD9058440F551F59F05F3F71F04C
:103C90004795880F97FB991F61F09F3F79F08795B3
:103CA0000895121613061406551FF2CF4695F1DF3C
:103CB00008C0161617061806991FF1CF86957105CC
:103CC000610508940895E894BB2766277727CB0100
:103CD00097F9089516F00C94271F0C941F1E6894F2
:103CE0000C94191E0E94491EA8F39923C1F3AEF348
:103CF000DF93CF931F930F93FF92C92FDD27882364
:103D00002AF02197660F771F881FDAF720E030E04E
:103D100040E85FEB9FE3883920F0803E38F0219641
:103D20008F770E94C81CE8E6F0E004C00E94C81C1F
:103D3000E5E9F0E00E94351F8B01BE01EC01FB2E8E
:103D40006F5771097595771F880B990B0E94DE1DBF
:103D500028E132E741E35FE30E94CD1EAF2D9801D9
:103D6000AE01FF900F911F91CF91DF910E94DF1C58
:103D70000C94301E0E94CD1E0C94301E0E94221EF8
:103D800038F00E94291E20F0952311F00C94191E82
:103D90000C941F1E11240C94641E0E94411E70F38B
:103DA000959FC1F3950F50E0551F629FF001729FE0
:103DB000BB27F00DB11D639FAA27F00DB11DAA1FEF
:103DC000649F6627B00DA11D661F829F2227B00D3C
:103DD000A11D621F739FB00DA11D621F839FA00DC7
:103DE000611D221F749F3327A00D611D231F849F17
:103DF000600D211D822F762F6A2F11249F5750406E
:103E00009AF0F1F088234AF0EE0FFF1FBB1F661FE8
:103E1000771F881F91505040A9F79E3F510580F0B1
:103E20000C94191E0C94641E5F3FE4F3983ED4F387
:103E3000869577956795B795F795E7959F5FC1F755
:103E4000FE2B880F911D9695879597F908959F3FB2
:103E500031F0915020F4879577956795B795880F45
:103E6000911D9695879597F90895DF93CF931F93AA
:103E70000F93FF92EF92DF927B018C01689406C052
:103E8000DA2EEF010E94CD1EFE01E894A591259146
:103E9000359145915591A6F3EF010E94DF1CFE017B
:103EA0009701A801DA9469F7DF90EF90FF900F91E6
:103EB0001F91CF91DF910895DB018F939F930E9413
:103EC000D71FBF91AF91A29F800D911DA39F900D11
:103ED000B29F900D1124089597FB072E16F40094BD
:103EE00007D077FD09D00E94EA1F07FC05D03EF4F9
:103EF000909581959F4F0895709561957F4F089596
:103F0000A1E21A2EAA1BBB1BFD010DC0AA1FBB1FDD
:103F1000EE1FFF1FA217B307E407F50720F0A21B4F
:103F2000B30BE40BF50B661F771F881F991F1A94BC
:103F300069F760957095809590959B01AC01BD01E6
:103F4000CF010895052E97FB1EF400940E94B91F1F
:103F500057FD07D00E94801F07FC03D04EF40C943D
:103F6000B91F50954095309521953F4F4F4F5F4F6A
:103F7000089590958095709561957F4F8F4F9F4FD5
:103F80000895A29FB001B39FC001A39F700D811D32
:103F90001124911DB29F700D811D1124911D089552
:103FA0000E94C11FB7FF0895821B930B08950E94C2
:103FB000C11FA59F900DB49F900DA49F800D911DD2
:103FC00011240895B7FF0C94D71F0E94D71F821B9E
:103FD000930B0895AA1BBB1B51E107C0AA1FBB1F6F
:103FE000A617B70710F0A61BB70B881F991F5A9585
:103FF000A9F780959095BC01CD010895F894FFCF65
:10400000DE05DE05DE05DE05DE05DE05DE05DE0598
:104010000000803F0000803F0000803F0000000063
:104020000000000000000002090A0B030605100C46
:10403000DC05DC05DC05DC05DC05DC05DC05E8036E
:104040000410204080040506020700010300000060
:0240500000006E
:00000001FF
